S01300004E4956325F425F323031362E7372656329
S113000047C4000064C4000062C4000060C400006F
S11300105EC400000C9401255AC4000058C40000BA
S113002056C4000054C4000052C4000050C4000070
S11300304EC400004CC400004AC400000C94D024F8
S113004046C4000044C4000042C4000040C4000090
S11300500C949F253CC400003AC4000038C400003E
S113006036C4000034C4000032C4000030C40000B0
S11300702EC400002CC400002AC4000028C40000C0
S113008026C4000024C4000022C40000B20FB70F2D
S1130090BC0FC10FC60FCB0FD00FD50F000000004F
S11300A00000005F00000007000700147F147F14A5
S11300B0242A7F2A122313086462364955225000E9
S11300C005030000001C2241000041221C00082AF4
S11300D01C2A0808083E08080050300000080808D8
S11300E00808006060000020100804023E514945E1
S11300F03E00427F400042615149462141454B3117
S11301001814127F1027454545393C4A49493001A6
S1130110710905033649494936064949291E0036FD
S1130120360000005636000000081422411414144E
S1130130141441221408000201510906324979417C
S11301403E7E1111117E7F494949363E414141228B
S11301507F4141221C7F494949417F090901013EF0
S1130160414151327F0808087F00417F410020400F
S1130170413F017F081422417F404040407F0204F8
S1130180027F7F0408107F3E4141413E7F090909F7
S1130190063E4151215E7F091929464649494931A4
S11301A001017F01013F4040403F1F2040201F7F4D
S11301B02018207F63140814630304780403615136
S11301C049454300007F4141020408102041417F1A
S11301D000000402010204404040404000010204C7
S11301E00020545454787F484444383844444420CC
S11301F0384444487F3854545418087E090102088E
S11302001454543C7F0804047800447D400020408A
S1130210443D00007F10284400417F40007C0418C6
S113022004787C0804047838444444387C14141456
S113023008081414187C7C080404084854545420F6
S1130240043F4440203C4040207C1C2040201C3C77
S11302504030403C44281028440C5050503C4464E6
S1130260544C44000836410000007F000000413631
S1130270080008082A1C08081C2A08080000E0F0E6
S1130280F0F0F000000000000000000000F0F0F0CA
S1130290F0F0F00000C0E0F0F0F0F0F0F0F0F0F07A
S11302A0F0F0F0F0F0F0F0F00000F0F0F0F0E0C06A
S11302B0000000000000000000000000000000E05A
S11302C0F0F0F0F000000000000000000000F0F08A
S11302D0F0F0F0F00000000000000000000000005A
S11302E000000000000000000000FFFFFFFFFF808F
S11302F0808080808080808080FFFFFFFFFFFF0080
S113030000FFFFFFFFFFFF81818181818181818166
S1130310810101010000FFFFFFFFFFFF000000005B
S11303200000000000000000000000FFFFFFFFFFCE
S113033080808080808080808080FFFFFFFFFFFFBF
S1130340000080E0F0F8F8F87C7C7C7C7CF8F8F81D
S1130350F0E080000000FFFFFFFFFF0F0F0F0F0F03
S11303600F0F0F0F0FFFFFFFFFFFFF0000FFFFFF47
S1130370FFFFFF0F0F0F0F0F0F0F0F0701000000FC
S11303800000FFFFFFFFFFFF00000000000000006F
S113039000000000000000FFFFFFFFFF0F0F0F0F22
S11303A00F0F0F0F0F0FFFFFFFFFFFFF0000C0E154
S11303B0F1F1F9F87878783C3C3EFFFFFFFFFF004D
S11303C00000FFFFFFFFFF0000000000000000002E
S11303D000FFFFFFFFFFFF0000FFFFFFFFFFFFF82D
S11303E0F8F8F8F8F8F8F8F8F8F8F8F80000FFFF6B
S11303F0FFFFFFFFF8F8F8F8F8F8F8F8F8F8F8F85D
S1130400000000FFFFFFFFFF0000000000000000ED
S11304100000FFFFFFFFFFFF00001F7FFFFFFFF84B
S1130420F0F0F0F0F8FEFFFFFFFFFF00F8F8F8F837
S1130430F8F8F8F8F8F8F8F8F8F8F8F8F8F8F8F838
S1130440F8F8F8F8F8F8F8F8F8F8F8F80000000008
S1130450000000000A0000A5100B000000001400BA
S113046000F41015000000002B000050112A0000B9
S11304700000160000FE1117000000002D00001BF4
S1130480122C000000002F000030122E000000008B
S113049047000089124600000000180000371319B5
S11304A0000000001C000058131D0000000049005B
S11304B000111448000000004B000029144A0000F9
S11304C000004D000041144C000000004F00005992
S11304D0144E000000001E000071141F00000000F4
S11304E0510000EC145000000000530000041552A9
S11304F0000000005500001C1554000000002000FE
S11305000034152100000000570000551556000066
S113051000005D0000B0155C00000000590000649C
S11305201658000000005F0000C9165E00000000BD
S11305305B000083175A000000002200009F17236D
S113054000000000310000CD1730000000006F00F3
S1130550001B186E000000007100005018700000AD
S11305600000330000851832000000003D0000B197
S1130570183C000000006100001619600000000033
S11305803F0000D0193E000000006300004B1A62D7
S1130590000000004100002B1B400000000065002B
S11305A000A61B6400000000430000841C420000FD
S11305B00000670000FF1C6600000000450000DD2D
S11305C01D4400000000690000421E680000000095
S11305D0350000F11E3400000000370000151F36FE
S11305E0000000006B0000771F6A00000000390063
S11305F000212038000000006D000083206C000002
S113060000002400002D2125000000002700002BFD
S1130610222600000000290000D12228000000004A
S113062000000000000B02140B03160B0418150C39
S11306300A150B2B2A012B2A022B2A032B2A042B03
S11306402A052B2A062B2A072B2A082B2A092B2AB0
S11306500A2B170C0A17022D17032F2C0C162E0C1D
S1130660162E0B47460147460247460347460447B2
S1130670460547460647460747460847460947464C
S11306800A47190C0A19021C19031E19042019051A
S1130690221906241D0C181D02491D034B1D044D6F
S11306A01D054F480C1C4A0C1C4C0C1C4E0C1C1FEA
S11306B00C181F02511F03531F0455500C1E520CDB
S11306C01E540C1E210C1821025721035921045BCE
S11306D0560C20560B5D5C015D5C025D5C035D5C49
S11306E0045D5C055D5C065D5C075D5C085D5C0942
S11306F05D5C0A5D580C20580B5F5E015F5E025F13
S11307005E035F5E045F5E055F5E065F5E075F5EBD
S1130710085F5E095F5E0A5F5A0C20230C182302EF
S113072031230333230435300C2230026F3003713C
S1130730320C2232023D32033F320441320543324D
S113074006453C0C333C0B6160016160026160034F
S11307506160046160056160066160076160086151
S1130760600961600A613E0C333E0B63620163629F
S11307700263620363620463620563620663620781
S113078063620863620963620A63400C33400B6569
S113079064016564026564036564046564056564F5
S11307A00665640765640865640965640A65420C46
S11307B033420B6766016766026766036766046710
S11307C0660567660667660767660867660967669B
S11307D00A67440C33440B69680169680269680359
S11307E06968046968056968066968076968086969
S11307F0680969680A69340C2234023734033936CB
S11308000C35360B6B6A016B6A026B6A036B6A0404
S11308106B6A056B6A066B6A076B6A086B6A096B1D
S11308206A0A6B380C35380B6D6C016D6C026D6C9B
S1130830036D6C046D6C056D6C066D6C076D6C0856
S11308406D6C096D6C0A6D250C182502272503298A
S113085026012726022726032726042726052726DE
S11308600627260727260827260927260A272801D8
S113087029280229280329280429280529280629A2
S1130880280729280829280929280A2900000000FE
S113089011241FBECFEFD0E4DEBFCDBF19E0A0E02E
S11308A0B1E0EAE2FDE400E00BBF02C007900D9264
S11308B0AC37B107D9F72BE0ACE7B9E001C01D9222
S11308C0AA3DB207E1F70E943C100C94932698CB02
S11308D043E060E080E0AED3EEE6FAE0A8E7BAE0F9
S11308E08C91808311968C911197818312968C91AF
S11308F08283089543E063E080E09CD3EBE6FAE072
S1130900A8E7BAE08C91808311968C91119781832A
S113091012968C918283089543E066E080E08AD346
S1130920E8E6FAE0A8E7BAE08C91808311968C910E
S11309301197818312968C918283089543E069E034
S113094080E078D3E5E6FAE0A8E7BAE08C9180830A
S113095011968C911197818312968C9182830895BC
S113096043E06CE080E066D3EDE4FAE0A8E7BAE0A7
S11309708C91808311968C911197818312968C911E
S11309808283089543E06FE080E054D3EAE4FAE020
S1130990A8E7BAE08C91808311968C91119781839A
S11309A012968C918283089543E062E180E042D301
S11309B0E2E6FAE0A8E7BAE08C91808311968C9184
S11309C01197818312968C918283089545E065E1A5
S11309D080E030D3EDE5FAE0A8E7BAE08C918083BB
S11309E011968C911197818312968C911297828320
S11309F013968C911397838314968C918483089512
S1130A0045E06AE180E016D3E8E5FAE0A8E7BAE059
S1130A108C91808311968C911197818312968C917D
S1130A201297828313968C911397838314968C91D7
S1130A308483089545E06FE180E0FCD2E3E5FAE0C9
S1130A40A8E7BAE08C91808311968C9111978183E9
S1130A5012968C911297828313968C9113978383A9
S1130A6014968C918483089543E064E280E0E2D29A
S1130A70E0E5FAE0A8E7BAE08C91808311968C91C6
S1130A801197818312968C918283089549E560E8D9
S1130A9080E0D0D2E0EFF9E0A8E7BAE08C9180835F
S1130AA011968C911197818312968C91129782835F
S1130AB013968C911397838314968C911497848343
S1130AC015968C911597858316968C911697868327
S1130AD017968C911797878318968C91189780870F
S1130AE019968C91199781871A968C911A978287F7
S1130AF01B968C911B9783871C968C911C978487DB
S1130B001D968C911D9785871E968C911E978687BE
S1130B101F968C911F97878750968C915097808B46
S1130B2051968C915197818B52968C915297828BCE
S1130B3053968C915397838B54968C915497848BB2
S1130B4055968C915597858B56968C915697868B96
S1130B5057968C915797878B58968C915897808F7E
S1130B6059968C915997818F5A968C915A97828F66
S1130B705B968C915B97838F5C968C915C97848F4A
S1130B805D968C915D97858F5E968C915E97868F2E
S1130B905F968C915F97878F90968C91909780A3A6
S1130BA091968C91919781A392968C91929782A31E
S1130BB093968C91939783A394968C91949784A302
S1130BC095968C91959785A396968C91969786A3E6
S1130BD097968C91979787A398968C91989780A7CE
S1130BE099968C91999781A79A968C919A9782A7B6
S1130BF09B968C919B9783A79C968C919C9784A79A
S1130C009D968C919D9785A79E968C919E9786A77D
S1130C109F968C919F9787A7D0968C91D09780AB05
S1130C20D1968C91D19781ABD2968C91D29782AB8D
S1130C30D3968C91D39783ABD4968C91D49784AB71
S1130C40D5968C91D59785ABD6968C91D69786AB55
S1130C50D7968C91D79787ABD8968C91D89780AF3D
S1130C60D9968C91D99781AFDA968C91DA9782AF25
S1130C70DB968C91DB9783AFDC968C9184AF80916B
S1130C80B50A80932D0A8091B60A80932E0A80912A
S1130C90B70A80932F0A8091B80A8093300A809112
S1130CA0B90A8093310A8091BA0A8093320A8091FA
S1130CB0BB0A8093330A8091BC0A8093340A8091E2
S1130CC0BD0A8093350A8091BE0A8093360A8091CA
S1130CD0BF0A8093370A8091C00A8093380A8091B2
S1130CE0C10A8093390A8091C20A80933A0A80919A
S1130CF0C30A80933B0A8091C40A80933C0A809182
S1130D00C50A80933D0A8091C60A80933E0A809169
S1130D10C70A80933F0A8091C80A8093400A809151
S1130D20C90A8093410A8091CA0A8093420A809139
S1130D30CB0A8093430A8091CC0A8093440A809121
S1130D40CD0A8093450A8091CE0A8093460A809109
S1130D50CF0A8093470A8091D00A8093480A089565
S1130D6049E560E081E066D1E6E9F9E0A8E7BAE0A8
S1130D708C91808311968C911197818312968C911A
S1130D801297828313968C911397838314968C9174
S1130D901497848315968C911597858316968C9158
S1130DA01697868317968C911797878318968C913C
S1130DB01897808719968C91199781871A968C9128
S1130DC01A9782871B968C911B9783871C968C910C
S1130DD01C9784871D968C911D9785871E968C91F0
S1130DE01E9786871F968C911F97878750968C91A4
S1130DF05097808B51968C915197818B52968C9100
S1130E005297828B53968C915397838B54968C91E3
S1130E105497848B55968C915597858B56968C91C7
S1130E205697868B57968C915797878B58968C91AB
S1130E305897808F59968C915997818F5A968C9197
S1130E405A97828F5B968C915B97838F5C968C917B
S1130E505C97848F5D968C915D97858F5E968C915F
S1130E605E97868F5F968C915F97878F90968C9113
S1130E70909780A391968C91919781A392968C914F
S1130E80929782A393968C91939783A394968C9133
S1130E90949784A395968C91959785A396968C9117
S1130EA0969786A397968C91979787A398968C91FB
S1130EB0989780A799968C91999781A79A968C91E7
S1130EC09A9782A79B968C919B9783A79C968C91CB
S1130ED09C9784A79D968C919D9785A79E968C91AF
S1130EE09E9786A79F968C919F9787A7D0968C9163
S1130EF0D09780ABD1968C91D19781ABD2968C91BF
S1130F00D29782ABD3968C91D39783ABD4968C91A2
S1130F10D49784ABD5968C91D59785ABD6968C9186
S1130F20D69786ABD7968C91D79787ABD8968C916A
S1130F30D89780AFD9968C91D99781AFDA968C9156
S1130F40DA9782AFDB968C91DB9783AFDC968C913A
S1130F5084AF8091B50A8093D3098091B60A8093B7
S1130F60D4098091B70A8093D5098091B80A8093F7
S1130F70D6098091B90A8093D7098091BA0A8093DF
S1130F80D8098091BB0A8093D9098091BC0A8093C7
S1130F90DA098091BD0A8093DB098091BE0A8093AF
S1130FA0DC098091BF0A8093DD098091C00A809397
S1130FB0DE098091C10A8093DF098091C20A80937F
S1130FC0E0098091C30A8093E1098091C40A809367
S1130FD0E2098091C50A8093E3098091C60A80934F
S1130FE0E4098091C70A8093E5098091C80A809337
S1130FF0E6098091C90A8093E7098091CA0A80931F
S1131000E8098091CB0A8093E9098091CC0A809306
S1131010EA098091CD0A8093EB098091CE0A8093EE
S1131020EC098091CF0A8093ED098091D00A8093D6
S1131030EE090895AF92BF92CF92DF92EF92FF92A2
S11310400F931F93CF93DF93C82FD62FC42EB0D402
S1131050813039F48AE091E00E94362616D581E089
S113106070C080EAC5D4813039F48DE191E00E94EA
S113107036260BD581E065C08C2FD1D4813039F46C
S11310808AE391E00E94362600D581E05AC08D2F74
S1131090C6D4813039F482E591E00E943626F5D435
S11310A081E04FC095D4813039F48AE691E00E9402
S11310B03626EBD481E045C081EA9AD4813019F018
S11310C0C11008C03CC084E891E00E943626DDD4FB
S11310D081E037C00F2EF8E7EF2EFAE0FF2EF02D57
S11310E0AA24AA94AC0CB12C8FEFA81AB80AC0E0B9
S11310F0D0E0D12CE1E0CE1AD1080C2FCC15DD05BF
S113110019F4B1D4182F02C09CD4182F1E3739F407
S113111081EA91E00E943626B8D481E012C00F70B3
S113112021F489EB91E00E943626812F0E942F261C
S1131130F70111937F012196CA15DB05F1F6A5D4B9
S113114080E0DF91CF911F910F91FF90EF90DF909E
S1131150CF90BF90AF900895EF92FF921F93CF93DB
S1131160DF93C82FD62FE42E23D4813039F48AE0BC
S113117091E00E94362689D481E046C080EA38D4C2
S1131180813039F48DE191E00E9436267ED481E0ED
S11311903BC08C2F44D4813039F48AE391E00E941F
S11311A0362673D481E030C08D2F39D4813019F0C4
S11311B0E11008C023C082E591E00E94362665D480
S11311C081E022C0C8E7DAE0EA948E2D90E09C0129
S11311D02758354F7901899122D4182F81ED91E058
S11311E00E943626113039F480EF91E00E943626B1
S11311F04CD481E009C0CE15DF0569F746D48BE0F5
S113120092E00E94362680E0DF91CF911F91FF90FB
S1131210EF900895E8E7FAE0AEE6BAE08C918083B7
S113122011968C911197818312968C91828343E05D
S113123060E080E091CF0895E8E7FAE0ABE6BAE039
S11312408C91808311968C911197818312968C9145
S1131250828343E063E080E07FCF0895E8E7FAE02B
S1131260A8E6BAE08C91808311968C9111978183C2
S113127012968C91828343E066E080E06DCF0895FE
S1131280E8E7FAE0A5E6BAE08C91808311968C91A8
S11312901197818312968C91828343E069E080E008
S11312A05BCF0895E8E7FAE0ADE4BAE08C9180837F
S11312B011968C911197818312968C91828343E0CD
S11312C06CE080E049CF0895E8E7FAE0AAE4BAE0E8
S11312D08C91808311968C911197818312968C91B5
S11312E0828343E06FE080E037CF0895E8E7FAE0D7
S11312F0A2E6BAE08C91808311968C911197818338
S113130012968C91828343E062E180E025CF0895B8
S1131310E8E7FAE0ADE5BAE08C91808311968C9110
S11313201197818312968C911297828313968C91D4
S11313301397838314968C91848345E065E180E060
S11313400BCF0895E8E7FAE0A8E5BAE08C91808332
S113135011968C911197818312968C9112978283A6
S113136013968C911397838314968C91848345E010
S11313706AE180E0F1CE0895E8E7FAE0A3E5BAE097
S11313808C91808311968C911197818312968C9104
S11313901297828313968C911397838314968C915E
S11313A0848345E06FE180E0D7CE0895E8E7FAE072
S11313B0A0E5BAE08C91808311968C91119781837A
S11313C012968C91828343E064E280E0C5CE089556
S11313D0E8E7FAE0A0EFB9E08C91808311968C9154
S11313E01197818312968C911297828313968C9114
S11313F01397838314968C911497848315968C91F8
S11314001597858316968C911697868317968C91DB
S11314101797878318968C911897808719968C91C3
S1131420199781871A968C911A9782871B968C91AB
S11314301B9783871C968C911C9784871D968C918F
S11314401D9785871E968C911E9786871F968C9173
S11314501F97878750968C915097808B51968C91CB
S11314605197818B52968C915297828B53968C9183
S11314705397838B54968C915497848B55968C9167
S11314805597858B56968C915697868B57968C914B
S11314905797878B58968C915897808F59968C9133
S11314A05997818F5A968C915A97828F5B968C911B
S11314B05B97838F5C968C915C97848F5D968C91FF
S11314C05D97858F5E968C915E97868F5F968C91E3
S11314D05F97878F90968C91909780A391968C912B
S11314E0919781A392968C91929782A393968C91D3
S11314F0939783A394968C91949784A395968C91B7
S1131500959785A396968C91969786A397968C919A
S1131510979787A398968C91989780A799968C9182
S1131520999781A79A968C919A9782A79B968C916A
S11315309B9783A79C968C919C9784A79D968C914E
S11315409D9785A79E968C919E9786A79F968C9132
S11315509F9787A7D0968C91D09780ABD1968C918A
S1131560D19781ABD2968C91D29782ABD3968C9142
S1131570D39783ABD4968C91D49784ABD5968C9126
S1131580D59785ABD6968C91D69786ABD7968C910A
S1131590D79787ABD8968C91D89780AFD9968C91F2
S11315A0D99781AFDA968C91DA9782AFDB968C91DA
S11315B0DB9783AFDC968C9184AF80912D0A809366
S11315C0B50A80912E0A8093B60A80912F0A8093DF
S11315D0B70A8091300A8093B80A8091310A8093C7
S11315E0B90A8091320A8093BA0A8091330A8093AF
S11315F0BB0A8091340A8093BC0A8091350A809397
S1131600BD0A8091360A8093BE0A8091370A80937E
S1131610BF0A8091380A8093C00A8091390A809366
S1131620C10A80913A0A8093C20A80913B0A80934E
S1131630C30A80913C0A8093C40A80913D0A809336
S1131640C50A80913E0A8093C60A80913F0A80931E
S1131650C70A8091400A8093C80A8091410A809306
S1131660C90A8091420A8093CA0A8091430A8093EE
S1131670CB0A8091440A8093CC0A8091450A8093D6
S1131680CD0A8091460A8093CE0A8091470A8093BE
S1131690CF0A8091480A8093D00A49E560E880E047
S11316A05BCD0895E8E7FAE0A6E9B9E08C91808380
S11316B011968C911197818312968C911297828343
S11316C013968C911397838314968C911497848327
S11316D015968C911597858316968C91169786830B
S11316E017968C911797878318968C9118978087F3
S11316F019968C91199781871A968C911A978287DB
S11317001B968C911B9783871C968C911C978487BE
S11317101D968C911D9785871E968C911E978687A2
S11317201F968C911F97878750968C915097808B2A
S113173051968C915197818B52968C915297828BB2
S113174053968C915397838B54968C915497848B96
S113175055968C915597858B56968C915697868B7A
S113176057968C915797878B58968C915897808F62
S113177059968C915997818F5A968C915A97828F4A
S11317805B968C915B97838F5C968C915C97848F2E
S11317905D968C915D97858F5E968C915E97868F12
S11317A05F968C915F97878F90968C91909780A38A
S11317B091968C91919781A392968C91929782A302
S11317C093968C91939783A394968C91949784A3E6
S11317D095968C91959785A396968C91969786A3CA
S11317E097968C91979787A398968C91989780A7B2
S11317F099968C91999781A79A968C919A9782A79A
S11318009B968C919B9783A79C968C919C9784A77D
S11318109D968C919D9785A79E968C919E9786A761
S11318209F968C919F9787A7D0968C91D09780ABE9
S1131830D1968C91D19781ABD2968C91D29782AB71
S1131840D3968C91D39783ABD4968C91D49784AB55
S1131850D5968C91D59785ABD6968C91D69786AB39
S1131860D7968C91D79787ABD8968C91D89780AF21
S1131870D9968C91D99781AFDA968C91DA9782AF09
S1131880DB968C91DB9783AFDC968C9184AF80914F
S1131890D3098093B50A8091D4098093B60A8091C4
S11318A0D5098093B70A8091D6098093B80A8091AC
S11318B0D7098093B90A8091D8098093BA0A809194
S11318C0D9098093BB0A8091DA098093BC0A80917C
S11318D0DB098093BD0A8091DC098093BE0A809164
S11318E0DD098093BF0A8091DE098093C00A80914C
S11318F0DF098093C10A8091E0098093C20A809134
S1131900E1098093C30A8091E2098093C40A80911B
S1131910E3098093C50A8091E4098093C60A809103
S1131920E5098093C70A8091E6098093C80A8091EB
S1131930E7098093C90A8091E8098093CA0A8091D3
S1131940E9098093CB0A8091EA098093CC0A8091BB
S1131950EB098093CD0A8091EC098093CE0A8091A3
S1131960ED098093CF0A8091EE098093D00A49E56E
S113197060E081E0F1CB08958FE084B980EF85B910
S11319808AB1806C8AB98BB11BB8089585B1806F18
S113199085B988B1836088B90895ECEBF0E01082D2
S11319A080E28093B8001092B90084E480830895A3
S11319B084EA8093BC00ECEBF0E080818823ECF7B0
S11319C09091B900987F81E0983009F480E00895FF
S11319D084EA8093BC00ECEBF0E080818823ECF790
S11319E09091B900987F81E0903109F480E00895E6
S11319F080FF02C020E401C028E18093BB0084E89A
S1131A008093BC00ECEBF0E080818823ECF79091AC
S1131A10B900987F81E0291301C080E00895809384
S1131A20BB0084E88093BC00ECEBF0E08081882369
S1131A30ECF79091B900987F81E0983209F480E046
S1131A40089584EC8093BC00ECEBF0E08081882363
S1131A50ECF78091B900887F803519F48091BB0040
S1131A6008958EE7089584E88093BC00ECEBF0E0E1
S1131A7080818823ECF78091B900887F883519F438
S1131A808091BB0008958EE7089584E98093BC009B
S1131A9008950000000000000000000000000000A5
S1131AA00000000000000000000000000000089595
S1131AB09FEF97B982B9449AECDF4498EACF08952E
S1131AC0886BF6CF08954698459A08954598469AA6
S1131AD00895CF93C82F803428F4F5DF8C2F8064C9
S1131AE0E7DF05C0F3DF80EC8C0F8064E1DFCF918A
S1131AF008958091180B803410F4E5CF0895E6CF53
S1131B000895F7DF11B8429888B1886188B9C1DFB8
S1131B1080B191B19FEF91B998B1977E98B908952A
S1131B20F0DF829581700895CF93DF93D82FC62F6D
S1131B308093180B6093190BDCDF8D2FCADF8C2F79
S1131B40869586958695BCDFDF91CF910895CF93D6
S1131B50C82F6091190B8091180BE6DF8FEF81B9C4
S1131B60C2B988B1846188B994DF4498429891DFFE
S1131B708091180B8F5F8093180BCF910895CF93AA
S1131B806091190B8091180BCFDF81B111B888B126
S1131B908C6188B97EDFC0B198B1937E98B979DF42
S1131BA081B18FEF81B96091190B8091180BBCDF63
S1131BB08C2FCF910895E3DFE2CF08951F93CF9345
S1131BC0DF93D82F10E0612F80E0AEDFC0E08D2FCF
S1131BD0BEDFCF5FC038D9F7185F1034A1F7DF91AB
S1131BE0CF911F91089580E0E9CF0895CF93C62F38
S1131BF09BDFE1DFC77021E030E002C0220F331F1A
S1131C00CA95E2F7822BA3DFCF910895CF93C62F15
S1131C108BDFD1DFC77021E030E002C0220F331F19
S1131C20CA95E2F72095822392DFCF910895CF934E
S1131C30DF93C62FD42F682F660F660F660F8C2F85
S1131C4073DFDC1730F0B7DF809581DFCF5FDC17FF
S1131C50D0F7DF91CF9108950F931F93CF93DF9324
S1131C60082F10E000521109C801880F991F880F2E
S1131C70991F080F191FE801C456DF4F0F551F4F56
S1131C808091180B88235CF46091190B683420F45C
S1131C90685F80E049DF03C060E080E045DFFE016B
S1131CA0849155DF2196C017D10751F780E04FDFAB
S1131CB0DF91CF911F910F9108950F931F93CF93AD
S1131CC0FC0180818823A1F08F01C0E08A3041F4B7
S1131CD01092180B9091190B985F9093190B01C0F7
S1131CE0BBDFCF5FF801EC0FF11D80818111EECFD6
S1131CF0CF911F910F910895E6DE8FE3D9DEE6DEE2
S1131D008FE3D6CE089587B18FEF87B991B181B9AA
S1131D1001C0BFDE05DF8111FCCFEEDF64DF60E0D0
S1131D2080E002CF0895EF920F93002304F13FE384
S1131D303E15E8F0322F369536953695E42FF0E0CF
S1131D40369FE00DF11D1124E80FF91FE491F0E036
S1131D50277002C0F595E7952A95E2F7E0FF04C0E5
S1131D606E2D802F43DF03C06E2D802F4FDF0F9128
S1131D70EF900895EF92FF920F931F93CF93DF9309
S1131D80062F142FC0E0D0E0E82EF12C97010C2E82
S1131D9002C0359527950A94E2F720FF04C0612F0D
S1131DA0802F24DF03C0612F802F30DF21961F5F37
S1131DB0C830D10559F7DF91CF911F910F91FF9052
S1131DC0EF900895CF92EF92FF920F931F93CF93CA
S1131DD0DF93662301F1469FA0011124EC01C40F97
S1131DE0D51F0E2D060F1E2DF12CE81AF90AE41A40
S1131DF0F50AFE01849197012C0F3D1F203831050F
S1131E0034F4FFE3FC1518F04C2D612FB3DF219659
S1131E101F5F1013EECFDF91CF911F910F91FF90B1
S1131E20EF90CF9008958F929F92AF92BF92CF92EE
S1131E30DF92EF92FF920F931F93CF93DF935C0196
S1131E40F62E842ED22F902ED02ED694D694D694BD
S1131E5071F0142FC0E0C12EEF2C0D2F20E04C2F79
S1131E606D2FC501AFDFCF5F185FCD11F4CF1D2DEE
S1131E70110F110F110F191598F016C0CC2DD12E7A
S1131E80D80C0C2F0F0DED2C212F4C2F6D2FC501CD
S1131E904ADFCF5FCD13F5CF1F5F191510F004C0D3
S1131EA0C12CD111EBCFF8CFDF0DD093180B80925A
S1131EB0190BDD235CF41092180B892D880D8034E6
S1131EC018F48093190B02C01092190BDF91CF9173
S1131ED01F910F91FF90EF90DF90CF90BF90AF9044
S1131EE09F908F900895379A08958091940990E077
S1131EF0019782309105B9F02CF4009751F00197C5
S1131F0069F0089584309105C1F094F00597D1F0FB
S1131F10089544E060E082E08ACE08954AE066E0F5
S1131F2082E085CE089546E162E182E080CE0895A4
S1131F304CE168E182E07BCE089548E264E282E00D
S1131F4076CE08954EE26AE282E071CE0895E09181
S1131F509409F0E03197E830F10558F5EA5BFF4F5A
S1131F600C94502644E060E082E061CE08954AE09B
S1131F7066E082E05CCE089546E162E182E057CEFD
S1131F8008954CE168E182E052CE089548E264E2AB
S1131F9082E04DCE08954EE26AE282E048CE089592
S1131FA044E360E382E043CE08954AE366E382E0DB
S1131FB03ECE08958091940990E001978130910577
S1131FC051F08230910561F0892B71F444E060E0B6
S1131FD082E02DCE08954AE066E082E028CE08959E
S1131FE040E16CE082E023CE08958091940990E072
S1131FF0019782309105B1F02CF4009749F00197D4
S113200061F008958330910591F00497A9F0089543
S113201044E060E082E00BCE08954AE066E082E0AE
S113202006CE089540E16CE082E001CE089546E1D9
S113203062E182E0FCCD08954CE168E182E0F7CDF5
S113204008958091940990E001978130910551F0B1
S11320508230910561F0892B71F444E060E082E004
S1132060E6CD089540E16CE082E0E1CD089546E1DB
S113207062E182E0DCCD08950F9388DC7DDC8DDCA9
S113208042DEB1DD00E22CE64CE06CE08CE792E04D
S1132090CADE2FEF83ED90E3215080409040E1F7BA
S11320A000C00000A0DD60E08FE03EDD8AE292E047
S11320B004DE60E08DE238DD44E66AE080E0B7DD0E
S11320C064E183E031DD88E392E0F7DD69E180E0FB
S11320D02BDD82E492E0F1DD87E592E0EEDD8EE631
S11320E092E0EBDD84E892E0E8DD2FEF8DE399E404
S11320F0215080409040E1F700C00000E8E6F0E0A5
S1132100808182608083ECE6F0E08081806F808350
S11321100E94992364EF71E083E79FE00E94B1235A
S113212080931F0B0E94292480E090E00F91089572
S113213083B1803F49F4E8E6F0E0808182608083E7
S113214080911C0B0C94DD2308954DDD809195093D
S1132150882319F0813009F13FC060E08DE2E4DCAE
S113216084E992E0AADD6FE083E0DEDC89E992E0B5
S1132170A4DD6EE183E0D8DC87EA92E09EDD6EE1C7
S113218083E0D2DC40E561E083E051DD6DE283E091
S1132190CBDC80EB92E091DD1FC060E08DE2C4DC1B
S11321A084E992E08ADD6FE083E0BEDC89E992E0B5
S11321B084DD6FE083E0B8DC40E561E081E037DD99
S11321C06EE183E0B1DC87EA92E077DD6DE283E0E3
S11321D0ABDC80EB92E071DD6CE383E0A5DC85E4AD
S11321E099E06BDD8BE008950F931F93CF93DF93FA
S11321F0CDB7DEB764970FB6F894DEBF0FBECDBF80
S113220081E0809395090E946804EDDC60E08DE232
S11322108BDC8CEB92E051DD64E180E085DC0EE642
S11322201AE0F80180814AE0BE016F5F7F4F90E0C1
S11322300E946026CE01019640DD80E591E03DDDFF
S1132240F80181814AE0BE016F5F7F4F90E00E94F8
S11322506026CE01019631DDF80182814AE0BE019B
S11322606F5F7F4F90E00E946026CE01019625DDCE
S113227068E283E059DC85EC92E01FDD6CE383E0E7
S113228053DC82ED92E019DD85E164960FB6F89493
S1132290DEBF0FBECDBFDF91CF911F910F91089587
S11322A00F931F93CF93DF93CDB7DEB764970FB629
S11322B0F894DEBF0FBECDBF1091210B4AE0BE01E2
S11322C06F5F7F4F812F90E00E946026CE010196C0
S11322D00E94362684E499E00E943626E09194090F
S11322E0EE2331F0F0E0E359F54F1150108308C0AC
S11322F064EF71E081E290E10E94B12380931B0BB3
S113230072DC60E08AE010DC8CED92E0D6DC64E103
S113231080E00ADC0EE61AE0F80180814AE0BE01A2
S11323206F5F7F4F90E00E946026CE010196C5DC6E
S113233080E591E0C2DCF80181814AE0BE016F5F73
S11323407F4F90E00E946026CE010196B6DCF80132
S113235082814AE0BE016F5F7F4F90E00E94602659
S1132360CE010196AADC809194098F5F843021F01C
S1132370809394098AE237C0109294090E940A0952
S1132380EEE6FAE04281218130E0C901880F991F0D
S1132390220F331F220F331F220F331F820F931F6D
S11323A0840F911D2081F4E62F9F800D911D11242F
S11323B090939109809390094AE0BE016F5F7F4F2B
S11323C00E94602680EF92E00E943626CE0101969C
S11323D00E94362684E499E00E94362680911B0BE5
S11323E00E94DD2384E164960FB6F894DEBF0FBE2D
S11323F0CDBFDF91CF911F910F9108951092950950
S1132400F2DB60E08DE290DB82E093E056DC6AE090
S113241083E08ADB87E093E050DC64E183E084DBE3
S113242088E193E04ADC6CE383E07EDB82ED92E0BA
S113243044DC87E10895D7DB60E089E175DB89E05E
S113244093E03BDC6AE083E06FDB8EE193E035DC14
S11324506CE383E069DB82ED92E02FDC8CE208958B
S11324600F931F93CF93DF93CDB7DEB764970FB667
S1132470F894DEBF0FBECDBF0E947A04B4DB60E0E7
S11324808DE252DB87E393E018DC64E180E04CDB0F
S11324900BE61AE0F80180814AE0BE016F5F7F4FCE
S11324A090E00E946026CE01019607DC80E591E071
S11324B004DCF80181814AE0BE016F5F7F4F90E048
S11324C00E946026CE010196F8DBF80182814AE081
S11324D0BE016F5F7F4F90E00E946026CE0101969F
S11324E0ECDB68E283E020DB85EC92E0E6DB6CE386
S11324F083E01ADB82ED92E0E0DB8EE264960FB6B5
S1132500F894DEBF0FBECDBFDF91CF911F910F9125
S113251008950F931F93CF93DF93CDB7DEB76497DE
S11325200FB6F894DEBF0FBECDBF1091210B4AE069
S1132530BE016F5F7F4F812F90E00E946026CE0125
S113254001960E94362684E499E00E943626E091A2
S11325509409EE2331F0F0E0E659F54F1150108361
S113256008C064EF71E081E290E10E94B12380939E
S11325701B0B39DB60E08AE0D7DA8BE393E09DDB69
S113258064E180E0D1DA0BE61AE0F80180814AE0E8
S1132590BE016F5F7F4F90E00E946026CE010196DE
S11325A08CDB80E591E089DBF80181814AE0BE01A2
S11325B06F5F7F4F90E00E946026CE0101967DDB25
S11325C0F80182814AE0BE016F5F7F4F90E00E9474
S11325D06026CE01019671DB809194098F5F84306F
S11325E021F08093940986E437C0109294090E94E4
S11325F01C09EBE6FAE04281218130E0C901880F31
S1132600991F220F331F220F331F220F331F820FF4
S1132610931F840F911D2081F4E62F9F800D911D3F
S1132620112490938F0980938E094AE0BE016F5F55
S11326307F4F0E9460268CE493E00E943626CE01F0
S113264001960E94362684E499E00E943626809101
S11326501B0B0E94DD238FE264960FB6F894DEBF55
S11326600FBECDBFDF91CF911F910F910895BBDABB
S113267060E089E159DA89E593E01FDB6AE080E0F4
S113268053DA84E693E019DB8FE693E016DB89E7FF
S113269093E013DB83E893E010DB89E993E00DDB3F
S11326A06CE383E041DA87EA93E007DB89E108958C
S11326B09ADA60E089E138DA8FEA93E0FEDA809111
S11326C09309823009F446C028F4882351F08130FC
S11326D009F19FC0833009F45DC0843009F47AC0E5
S11326E098C06AE083E020DA8DEB93E0E6DA64E1F7
S11326F083E01ADA8BEC93E0E0DA6EE183E014DA3B
S113270088ED93E0DADA63E283E00EDA83EE93E0B5
S1132710D4DA7FC06AE083E007DA8DEB93E0CDDAA8
S11327206AE083E001DA40E561E081E080DA64E1B7
S113273083E0FAD98BEC93E0C0DA6EE183E0F4D95C
S113274088ED93E0BADA63E283E0EED983EE93E0B6
S1132750B4DA5FC06AE083E0E7D98DEB93E0ADDAE9
S113276064E183E0E1D98BEC93E0A7DA64E183E0F0
S1132770DBD940E561E082E05ADA6EE183E0D4D946
S113278088ED93E09ADA63E283E0CED983EE93E0B6
S113279094DA3FC06AE083E0C7D98DEB93E08DDA29
S11327A064E183E0C1D98BEC93E087DA6EE183E0E6
S11327B0BBD988ED93E081DA6EE183E0B5D940E5D9
S11327C061E083E034DA63E283E0AED983EE93E040
S11327D074DA1FC06AE083E0A7D98DEB93E06DDA69
S11327E064E183E0A1D98BEC93E067DA6EE183E0E6
S11327F09BD988ED93E061DA63E283E095D983EEB7
S113280093E05BDA63E283E08FD940E561E084E042
S11328100EDA6CE383E088D982ED92E04EDA8DE142
S1132820089581E080939309DED960E08FE07CD93C
S113283089EE93E042DA6AE083E076D98FEB93E0A5
S11328403CDA6CE383E070D987EA93E036DA88E413
S1132850089582E080939309C6D960E08FE064D93B
S113286089EE93E02ADA6AE083E05ED98DEC93E0A6
S113287024DA6CE383E058D987EA93E01EDA8AE429
S1132880089583E080939309AED960E08FE04CD93A
S113289089EE93E012DA6AE083E046D98AED93E0A8
S11328A00CDA6CE383E040D987EA93E006DA8CE43F
S11328B0089584E08093930996D960E08FE034D939
S11328C089EE93E0FAD96AE083E02ED985EE93E0AD
S11328D0F4D96CE383E028D987EA93E0EED98EE457
S11328E0089581D960E08DE21FD989EF93E0E5D99D
S11328F0809192098130D9F038F0823009F431C0E6
S1132900833009F448C060C06AE083E00DD980E0F8
S113291094E0D3D964E183E007D986E094E0CDD98B
S11329206EE183E001D98FE094E0C7D94DC06AE03D
S113293083E0FAD880E094E0C0D96AE083E0F4D878
S113294040E561E081E073D964E183E0EDD886E09D
S113295094E0B3D96EE183E0E7D88FE094E0ADD999
S113296033C06AE083E0E0D880E094E0A6D964E173
S113297083E0DAD886E094E0A0D964E183E0D4D897
S113298040E561E082E053D96EE183E0CDD88FE089
S113299094E093D919C06AE083E0C6D880E094E05B
S11329A08CD964E183E0C0D886E094E086D96EE1F6
S11329B083E0BAD88FE094E080D96EE183E0B4D8A4
S11329C040E561E083E033D96CE383E0ADD882ED88
S11329D092E073D98FE1089581E08093920903D93D
S11329E060E08FE0A1D88CE194E067D96AE083E0ED
S11329F09BD882E094E061D96CE383E095D887EAC0
S1132A0093E05BD980E5089582E080939209EBD846
S1132A1060E08FE089D88CE194E04FD96AE083E0EC
S1132A2083D888E094E049D96CE383E07DD887EAD1
S1132A3093E043D982E5089583E080939209D3D843
S1132A4060E08FE071D88CE194E037D96AE083E0EC
S1132A506BD881E194E031D96CE383E065D887EAEF
S1132A6093E02BD984E50895BED860E08DE25CD86C
S1132A708CE294E022D96AE083E056D883E394E0C0
S1132A801CD964E183E050D882E494E016D96EE165
S1132A9083E04AD881E594E010D96CE383E044D81C
S1132AA082ED92E00AD981E208950F931F93CF93A8
S1132AB0DF93CDB7DEB764970FB6F894DEBF0FBED1
S1132AC0CDBF0E948C048FD860E08DE22DD888E5BC
S1132AD094E0F3D864E180E027D808E61AE0F8012E
S1132AE080814AE0BE016F5F7F4F90E00E946026C4
S1132AF0CE010196E2D8F80181814AE0BE016F5F00
S1132B007F4F90E00E946026CE010196D6D8F8014E
S1132B1082814AE0BE016F5F7F4F90E00E94602691
S1132B20CE010196CAD88DEA97E0C7D868E283E05F
S1132B300E94940D85EC92E0C0D86CE383E00E947F
S1132B40940D82ED92E0B9D886E564960FB6F894B8
S1132B50DEBF0FBECDBFDF91CF911F910F910895BE
S1132B600F931F93CF93DF93CDB7DEB764970FB660
S1132B70F894DEBF0FBECDBF1091210B4AE0BE0119
S1132B806F5F7F4F812F90E00E946026CE010196F7
S1132B900E94362684E499E00E943626E091940946
S1132BA0EE2331F0F0E0E959F54F1150108308C0DD
S1132BB064EF71E08AED9FE00E94B12380931E0BC5
S1132BC012D860E08AE00E94940D81E694E075D802
S1132BD064E180E00E94940D08E61AE0F801808127
S1132BE04AE0BE016F5F7F4F90E00E946026CE01F5
S1132BF0019663D8F80181814AE0BE016F5F7F4F7F
S1132C0090E00E946026CE01019657D8F801828197
S1132C104AE0BE016F5F7F4F90E00E946026CE01C4
S1132C2001964BD88DEA97E048D8809194098F5F3C
S1132C30843021F0809394098CE53BC01092940970
S1132C400E942E09E8E6FAE04281218130E0C901C0
S1132C50880F991F220F331F220F331F220F331F98
S1132C60820F931F840F911D2081F4E62F9F800D06
S1132C70911D112490938D0980938C094AE0BE0123
S1132C806F5F7F4F0E94602683E794E00E943626A0
S1132C90CE0101960E9436268DEA97E00E943626E0
S1132CA084E499E00E94362680911E0B0E94DD2365
S1132CB087E564960FB6F894DEBF0FBECDBFDF91F3
S1132CC0CF911F910F9108950F931F93CF93DF938B
S1132CD0CDB7DEB764970FB6F894DEBF0FBECDBF95
S1132CE00E949E040E94F30D60E08DE20E94940D08
S1132CF086E894E00E945D0E64E180E00E94940DF9
S1132D0005E61AE0F80180814AE0BE016F5F7F4F5B
S1132D1090E00E946026CE0101960E945D0EF801AB
S1132D2081814AE0BE016F5F7F4F90E00E94602680
S1132D30CE0101960E945D0EF80182814AE0BE0137
S1132D406F5F7F4F90E00E946026CE0101960E9443
S1132D505D0E8DEA97E00E945D0E68E283E00E94BA
S1132D60940D85EC92E00E945D0E6CE383E00E947A
S1132D70940D82ED92E00E945D0E88E564960FB694
S1132D80F894DEBF0FBECDBFDF91CF911F910F919D
S1132D9008950F931F93CF93DF93CDB7DEB7649756
S1132DA00FB6F894DEBF0FBECDBF1091210B4AE0E1
S1132DB0BE016F5F7F4F812F90E00E946026CE019D
S1132DC001960E94362684E499E00E943626E0911A
S1132DD09409EE2331F0F0E0EC59F54F11501083D3
S1132DE008C064EF71E08AED9FE00E94B1238093F4
S1132DF01E0B0E94F30D60E08AE00E94940D8EE8A1
S1132E0094E00E945D0E64E180E00E94940D05E66A
S1132E101AE0F80180814AE0BE016F5F7F4F90E0C5
S1132E200E946026CE0101960E945D0EF801818108
S1132E304AE0BE016F5F7F4F90E00E946026CE01A2
S1132E4001960E945D0EF80182814AE0BE016F5F27
S1132E507F4F90E00E946026CE0101960E945D0E95
S1132E608DEA97E00E945D0E809194098F5F843013
S1132E7021F0809394098EE53BC0109294090E943E
S1132E804009E5E6FAE04281218130E0C901880F7A
S1132E90991F220F331F220F331F220F331F820F5C
S1132EA0931F840F911D2081F4E62F9F800D911DA7
S1132EB0112490938B0980938A094AE0BE016F5FC5
S1132EC07F4F0E9460268FE994E00E943626CE014F
S1132ED001960E9436268DEA97E00E94362684E405
S1132EE099E00E94362680911E0B0E94DD2389E51D
S1132EF064960FB6F894DEBF0FBECDBFDF91CF91BD
S1132F001F910F9108950E94F30D60E08DE20E94DD
S1132F10940D85EB94E00E945D0E64E183E00E94D1
S1132F20940D8DEB94E00E945D0E6CE383E00E94AF
S1132F30940D82ED92E00E945D0E8AE508950E9450
S1132F4046050E94F30D60E08AE00E94940D86EC31
S1132F5094E00E945D0E6AE083E00E94940D89ED86
S1132F6094E00E945D0E64E183E00E94940D86EE7D
S1132F7094E00E945D0E6EE183E00E94940D8CEE5D
S1132F8094E00E945D0E6CE383E00E94940D82ED58
S1132F9092E00E945D0E83E208950E94B0060E94B2
S1132FA0F30D60E083E20E94940D89EF94E00E94A7
S1132FB05D0E6AE080E00E94940D84E095E00E943A
S1132FC05D0E64E180E00E94940D89E195E00E9429
S1132FD05D0E6CE383E00E94940D82ED92E00E940A
S1132FE05D0E8EE295E00E94362680EF99E00E9405
S1132FF0362688E495E00E94362686E999E00E9408
S1133000362682E695E00E9436268FEB95E00E94F4
S113301036268AE196E00E94362687E596E00E94ED
S113302036268FEB95E00E94362683EB96E00E94CD
S1133030362680E30895809101018823C1F08DEE46
S113304096E00E9436260E94F30D60E083E20E941F
S1133050940D89EF94E00E945D0E6AE080E00E9486
S1133060940D8AE097E00E945D0E10920101809118
S1133070B20B882399F06CE47BE080EF99E00E9426
S113308059260E94E80980E297E00E9436261092B1
S1133090B20B81E08093010181E308958FE60895E6
S11330A0809100018823C1F08DEE96E00E943626BF
S11330B00E94F30D60E083E20E94940D89EF94E096
S11330C00E945D0E6AE080E00E94940D8AE397E01E
S11330D00E945D0E109200018091B20B882399F03A
S11330E06CE47BE086E999E00E9459260E94520B29
S11330F080E297E00E9436261092B20B81E0809322
S1133100000181E3089581E708950E94F30D60E0D2
S11331108FE00E94940D80E597E00E945D0E6AE0C6
S113312080E00E94940D8FE597E00E945D0E85E695
S113313097E00E945D0E8BE697E00E945D0E81E7AA
S113314097E00E945D0E87E797E00E945D0E6CE3B6
S113315083E00E94940D82ED92E00E945D0E82E372
S113316008950F931F93CF93DF93CDB7DEB7649782
S11331700FB6F894DEBF0FBECDBF0E94D4040E94E8
S1133180F30D60E082E00E94940D8FE797E00E94C7
S11331905D0E64E180E00E94940D02E61AE0F801FD
S11331A080814AE0BE016F5F7F4F90E00E946026FD
S11331B0CE0101960E945D0EF80181814AE0BE01B4
S11331C06F5F7F4F90E00E946026CE0101960E94BF
S11331D05D0EF80182814AE0BE016F5F7F4F90E08F
S11331E00E946026CE0101960E945D0E8DEA97E052
S11331F00E945D0E68E283E00E94940D85EC92E0EB
S11332000E945D0E6CE383E00E94940D82ED92E0D7
S11332100E945D0E8CE364960FB6F894DEBF0FBE79
S1133220CDBFDF91CF911F910F9108950F931F93FD
S1133230CF93DF93CDB7DEB764970FB6F894DEBFB4
S11332400FBECDBF1091210B4AE0BE016F5F7F4FCF
S1133250812F90E00E946026CE0101960E943626BE
S113326084E499E00E943626E0919409EE2331F03B
S1133270F0E0EF59F54F1150108308C064EF71E08E
S11332808AED9FE00E94B12380931E0B0E94F30DF0
S113329060E082E00E94940D85E997E00E945D0E53
S11332A064E180E00E94940D02E61AE0F801808156
S11332B04AE0BE016F5F7F4F90E00E946026CE011E
S11332C001960E945D0EF80181814AE0BE016F5FA4
S11332D07F4F90E00E946026CE0101960E945D0E11
S11332E0F80182814AE0BE016F5F7F4F90E00E9447
S11332F06026CE0101960E945D0E8DEA97E00E9441
S11333005D0E809194098F5F843021F0809394093D
S113331080E63BC0109294090E947609E2E6FAE046
S11333204281218130E0C901880F991F220F331F88
S1133330220F331F220F331F820F931F840F911DFF
S11333402081F4E62F9F800D911D1124909389090B
S1133350809388094AE0BE016F5F7F4F0E94602618
S113336085E997E00E943626CE0101960E94362612
S11333708CEA97E00E94362684E499E00E9436267F
S113338080911E0B0E94DD238DE364960FB6F894A2
S1133390DEBF0FBECDBFDF91CF911F910F91089576
S11333A00F931F93CF93DF93CDB7DEB764970FB618
S11333B0F894DEBF0FBECDBF0E94E6040E94F30D59
S11333C060E082E00E94940D8FEA97E00E945D0E17
S11333D064E180E00E94940D0DE51AE0F80180811B
S11333E04AE0BE016F5F7F4F90E00E946026CE01ED
S11333F001960E945D0EF80181814AE0BE016F5F73
S11334007F4F90E00E946026CE0101960E945D0EDF
S1133410F80182814AE0BE016F5F7F4F90E00E9415
S11334206026CE0101960E945D0EF80183814AE078
S1133430BE016F5F7F4F90E00E946026CE0101962F
S11334400E945D0EF80184814AE0BE016F5F7F4FE8
S113345090E00E946026CE0101960E945D0E68E213
S113346083E00E94940D85EC92E00E945D0E6CE373
S113347083E00E94940D82ED92E00E945D0E8EE343
S113348064960FB6F894DEBF0FBECDBFDF91CF9127
S11334901F910F9108950F931F93CF93DF93CDB78F
S11334A0DEB764970FB6F894DEBF0FBECDBF1091A0
S11334B0210B4AE0BE016F5F7F4F812F90E00E9495
S11334C06026CE0101960E94362684E499E00E948B
S11334D03626E0919409EE2331F0F0E0E45AF54FFA
S11334E01150108308C064EF71E085EF9FE00E94E3
S11334F0B1238093200B0E94F30D60E082E00E94D0
S1133500940D85EC97E00E945D0E64E180E00E94DA
S1133510940D0DE51AE0F80180814AE0BE016F5F69
S11335207F4F90E00E946026CE0101960E945D0EBE
S1133530F80181814AE0BE016F5F7F4F90E00E94F5
S11335406026CE0101960E945D0EF80182814AE058
S1133550BE016F5F7F4F90E00E946026CE0101960E
S11335600E945D0EF80183814AE0BE016F5F7F4FC8
S113357090E00E946026CE0101960E945D0EF80143
S113358084814AE0BE016F5F7F4F90E00E94602615
S1133590CE0101960E945D0E809194098F5F863062
S11335A021F08093940982E64BC0109294090E9402
S11335B08809EDE5FAE02481838190E0AC01440FB1
S11335C0551F880F991F880F991F880F991F840F03
S11335D0951F820F911D228134E6239F800D911D3A
S11335E01124618148EE53E0649F9001659F300D82
S11335F01124820F931F608140E157E2649F900180
S1133600659F300D1124820F931F90938709809337
S113361086094AE0BE016F5F7F4F0E94602685ECF9
S113362097E00E943626CE0101960E94362684E455
S113363099E00E9436268091200B0E94DD238FE3BF
S113364064960FB6F894DEBF0FBECDBFDF91CF9165
S11336501F910F9108950F931F93CF93DF93CDB7CD
S1133660DEB764970FB6F894DEBF0FBECDBF0E94DD
S113367000050E94F30D60E085E00E94940D8CED3E
S113368097E00E945D0E64E180E00E94940D08E5DD
S11336901AE0F80180814AE0BE016F5F7F4F90E03D
S11336A00E946026CE0101960E945D0EF801818180
S11336B04AE0BE016F5F7F4F90E00E946026CE011A
S11336C001960E945D0EF80182814AE0BE016F5F9F
S11336D07F4F90E00E946026CE0101960E945D0E0D
S11336E0F80183814AE0BE016F5F7F4F90E00E9442
S11336F06026CE0101960E945D0EF80184814AE0A5
S1133700BE016F5F7F4F90E00E946026CE0101965C
S11337100E945D0E68E283E00E94940D85EC92E0C5
S11337200E945D0E6CE383E00E94940D82ED92E0B2
S11337300E945D0E80E464960FB6F894DEBF0FBE5F
S1133740CDBFDF91CF911F910F9108950F931F93D8
S1133750CF93DF93CDB7DEB764970FB6F894DEBF8F
S11337600FBECDBF1091210B4AE0BE016F5F7F4FAA
S1133770812F90E00E946026CE0101960E94362699
S113378084E499E00E943626E0919409EE2331F016
S1133790F0E0E95AF54F1150108307C064EF71E06F
S11337A085EF9FE0DED78093200B0E94F30D60E04D
S11337B085E00E94940D81EF97E00E945D0E64E124
S11337C080E00E94940D08E51AE0F80180814AE047
S11337D0BE016F5F7F4F90E00E946026CE0101968C
S11337E00E945D0EF80181814AE0BE016F5F7F4F48
S11337F090E00E946026CE0101960E945D0EF801C1
S113380082814AE0BE016F5F7F4F90E00E94602694
S1133810CE0101960E945D0EF80183814AE0BE014B
S11338206F5F7F4F90E00E946026CE0101960E9458
S11338305D0EF80184814AE0BE016F5F7F4F90E026
S11338400E946026CE0101960E945D0E809194092B
S11338508F5F863021F08093940984E64AC01092E9
S113386094090E94A209E8E5FAE02481838190E0AA
S1133870AC01440F551F880F991F880F991F880F9B
S1133880991F840F951F820F911D228134E6239F77
S1133890800D911D1124618148EE53E0649F9001D5
S11338A0659F300D1124820F931F608140E157E220
S11338B0649F9001659F300D1124820F931F909394
S11338C08509809384094AE0BE016F5F7F4F0E949F
S11338D0602681EF97E00E943626CE0101960E9471
S11338E0362684E499E00E9436268091200B65D721
S11338F081E464960FB6F894DEBF0FBECDBFDF91AE
S1133900CF911F910F9108950F931F93CF93DF933E
S1133910CDB7DEB764970FB6F894DEBF0FBECDBF48
S11339200E941A050E94F30D60E085E00E94940D48
S113393087E098E00E945D0E64E180E00E94940DAF
S113394003E51AE0F80180814AE0BE016F5F7F4F12
S113395090E00E946026CE0101960E945D0EF8015F
S113396081814AE0BE016F5F7F4F90E00E94602634
S1133970CE0101960E945D0EF80182814AE0BE01EB
S11339806F5F7F4F90E00E946026CE0101960E94F7
S11339905D0EF80183814AE0BE016F5F7F4F90E0C6
S11339A00E946026CE0101960E945D0EF80184817A
S11339B04AE0BE016F5F7F4F90E00E946026CE0117
S11339C001960E945D0E68E283E00E94940D85ECEE
S11339D092E00E945D0E6CE383E00E94940D82ED00
S11339E092E00E945D0E82E464960FB6F894DEBF06
S11339F00FBECDBFDF91CF911F910F9108950F930B
S1133A001F93CF93DF93CDB7DEB764970FB6F894C7
S1133A10DEBF0FBECDBF1091210B4AE0BE016F5F28
S1133A207F4F812F90E00E946026CE0101960E9474
S1133A30362684E499E00E943626E0919409EE2328
S1133A4031F0F0E0EE5AF54F1150108307C064EFE7
S1133A5071E085EF9FE085D68093200B0E94F30DE3
S1133A6060E085E00E94940D8BE198E00E945D0E79
S1133A7064E180E00E94940D03E51AE0F80180817E
S1133A804AE0BE016F5F7F4F90E00E946026CE0146
S1133A9001960E945D0EF80181814AE0BE016F5FCC
S1133AA07F4F90E00E946026CE0101960E945D0E39
S1133AB0F80182814AE0BE016F5F7F4F90E00E946F
S1133AC06026CE0101960E945D0EF80183814AE0D2
S1133AD0BE016F5F7F4F90E00E946026CE01019689
S1133AE00E945D0EF80184814AE0BE016F5F7F4F42
S1133AF090E00E946026CE0101960E945D0E8091A6
S1133B0094098F5F863021F08093940986E64AC039
S1133B10109294090E94BC09E3E5FAE024818381B0
S1133B2090E0AC01440F551F880F991F880F991F0F
S1133B30880F991F840F951F820F911D228134E6EF
S1133B40239F800D911D1124618148EE53E0649FF1
S1133B509001659F300D1124820F931F608140E115
S1133B6057E2649F9001659F300D1124820F931FCB
S1133B7090938309809382094AE0BE016F5F7F4F6F
S1133B800E9460268BE198E00E943626CE010196C1
S1133B900E94362684E499E00E9436268091200B08
S1133BA00CD683E464960FB6F894DEBF0FBECDBF87
S1133BB0DF91CF911F910F9108950F931F93CF938E
S1133BC0DF93CDB7DEB764970FB6F894DEBF0FBEB0
S1133BD0CDBF0E9434050E94F30D60E085E00E9491
S1133BE0940D80E398E00E945D0E64E180E00E9401
S1133BF0940D00E51AE0F80180814AE0BE016F5F90
S1133C007F4F90E00E946026CE0101960E945D0ED7
S1133C1080E591E00E945D0EF80181814AE0BE01D9
S1133C206F5F7F4F90E00E946026CE0101960E9454
S1133C305D0EF80182814AE0BE016F5F7F4F90E024
S1133C400E946026CE0101960E945D0E68E283E028
S1133C500E94940D85EC92E00E945D0E6CE383E07B
S1133C600E94940D82ED92E00E945D0E84E46496BD
S1133C700FB6F894DEBF0FBECDBFDF91CF911F9179
S1133C800F9108950F931F93CF93DF93CDB7DEB7B2
S1133C9064970FB6F894DEBF0FBECDBF1091210B11
S1133CA04AE0BE016F5F7F4F812F90E00E94602643
S1133CB0CE010196DBD784E499E0D8D7E09194094A
S1133CC0EE2331F0F0E0E15BF54F1150108307C0B3
S1133CD064EF71E081E290E144D580931B0B0E9474
S1133CE0F30D60E085E00E94940D84E498E00E9466
S1133CF05D0E64E180E00E94940D00E51AE0F80195
S1133D0080814AE0BE016F5F7F4F90E0D9D7CE013A
S1133D1001960E945D0E80E591E00E945D0EF8011F
S1133D2081814AE0BE016F5F7F4F90E0C9D7CE0129
S1133D3001960E945D0EF80182814AE0BE016F5F28
S1133D407F4F90E0BDD7CE0101960E945D0E809119
S1133D5094098F5F843021F08093940988E636C0FB
S1133D60109294090E94D609E0E5FAE0228181814B
S1133D7090E0AC01440F551F880F991F880F991FBD
S1133D80880F991F840F951F820F911D2081F4E6DF
S1133D902F9F800D911D1124909381098093800998
S1133DA04AE0BE016F5F7F4F809182099091830941
S1133DB087D784E498E05AD7CE01019657D784E494
S1133DC099E054D780911B0BF8D485E464960FB620
S1133DD0F894DEBF0FBECDBFDF91CF911F910F913D
S1133DE008950E94F30D60E081E00E94940D89E53E
S1133DF098E00E945D0E6AE083E00E94940D8FE6D5
S1133E0098E00E945D0E64E183E00E94940D8AE7CD
S1133E1098E00E945D0E6CE383E00E94940D82EDB5
S1133E2092E00E945D0E84E308950F931F93CF9355
S1133E30DF93CDB7DEB764970FB6F894DEBF0FBE3D
S1133E40CDBF0E94B0040E94F30D60E08DE20E9499
S1133E50940D81E798E00E945D0E64E180E00E9489
S1133E60940D0DE41AE0F80180814AE0BE016F5F11
S1133E707F4F90E025D7CE0101960E945D0E80E52C
S1133E8091E00E945D0EF80181814AE0BE016F5FFE
S1133E907F4F90E015D7CE0101960E945D0EF80188
S1133EA082814AE0BE016F5F7F4F90E009D7CE0167
S1133EB001960E945D0E68E283E00E94940D85ECF9
S1133EC092E00E945D0E6CE383E00E94940D82ED0B
S1133ED092E00E945D0E86E364960FB6F894DEBF0E
S1133EE00FBECDBFDF91CF911F910F9108950F9316
S1133EF01F93CF93DF93CDB7DEB764970FB6F894D3
S1133F00DEBF0FBECDBF1091210B4AE0BE016F5F33
S1133F107F4F812F90E0D4D6CE010196A7D684E4BA
S1133F2099E0A4D6E0919409EE2331F0F0E0E45B4B
S1133F30F54F1150108307C064EF71E081E290E106
S1133F4010D480931B0B0E94F30D60E083E20E9467
S1133F50940D84E898E00E945D0E64E180E00E9484
S1133F60940D0DE41AE0F80180814AE0BE016F5F10
S1133F707F4F90E0A5D6CE0101960E945D0E80E5AC
S1133F8091E00E945D0EF80181814AE0BE016F5FFD
S1133F907F4F90E095D6CE0101960E945D0EF80108
S1133FA082814AE0BE016F5F7F4F90E089D6CE01E7
S1133FB001960E945D0E809194098F5F843021F0F8
S1133FC0809394098AE632C0109294090E9452099F
S1133FD0EDE4FAE04281218130E0C901880F991FA4
S1133FE0220F331F220F331F220F331F820F931F01
S1133FF0840F911D2081F4E62F9F800D911D1124C3
S113400090937F0980937E094AE0BE016F5F7F4FE2
S113401057D68EE898E02AD6CE01019627D684E4B6
S113402099E024D680911B0BC8D387E364960FB61E
S1134030F894DEBF0FBECDBFDF91CF911F910F91DA
S113404008950F931F93CF93DF93CDB7DEB7649793
S11340500FB6F894DEBF0FBECDBF0E94C2040E940B
S1134060F30D60E08DE20E94940D8CE798E00E94CD
S11340705D0E64E180E00E94940D0AE41AE0F80108
S113408080814AE0BE016F5F7F4F90E019D6CE0178
S113409001960E945D0E80E591E00E945D0EF8019C
S11340A081814AE0BE016F5F7F4F90E009D6CE0167
S11340B001960E945D0EF80182814AE0BE016F5FA5
S11340C07F4F90E0FDD5CE0101960E945D0E68E21F
S11340D083E00E94940D85EC92E00E945D0E6CE3F7
S11340E083E00E94940D82ED92E00E945D0E88E3CD
S11340F064960FB6F894DEBF0FBECDBFDF91CF91AB
S11341001F910F9108950F931F93CF93DF93CDB712
S1134110DEB764970FB6F894DEBF0FBECDBF109123
S1134120210B4AE0BE016F5F7F4F812F90E0C8D51D
S1134130CE0101969BD584E499E098D5E091940949
S1134140EE2331F0F0E0E75BF54F1150108307C028
S113415064EF71E081E290E104D380931B0B0E9431
S1134160F30D60E083E20E94940D8FE998E00E94D1
S11341705D0E64E180E00E94940D0AE41AE0F80107
S113418080814AE0BE016F5F7F4F90E099D5CE01F8
S113419001960E945D0E80E591E00E945D0EF8019B
S11341A081814AE0BE016F5F7F4F90E089D5CE01E7
S11341B001960E945D0EF80182814AE0BE016F5FA4
S11341C07F4F90E07DD5CE0101960E945D0E8091D7
S11341D094098F5F843021F0809394098CE632C077
S11341E0109294090E946409EAE4FAE04281218170
S11341F030E0C901880F991F220F331F220F331F8C
S1134200220F331F820F931F840F911D2081F4E628
S11342102F9F800D911D112490937D0980937C091B
S11342204AE0BE016F5F7F4F4BD588EA98E01ED508
S1134230CE0101961BD584E499E018D580911B0B1F
S1134240BCD289E364960FB6F894DEBF0FBECDBF2F
S1134250DF91CF911F910F9108950F931F93CF93E7
S1134260DF93CDB7DEB764970FB6F894DEBF0FBE09
S1134270CDBF0E94F30D60E08AE00E94940D88EBAC
S113428098E00E945D0E64E180E00E94940D01E7D5
S11342901AE0F80180814AE0BE016F5F7F4F90E031
S11342A00FD5CE0101960E945D0EF80181814AE08E
S11342B0BE016F5F7F4F90E003D5CE0101960E944F
S11342C05D0E8BEB94E00E945D0EF80182814AE062
S11342D0BE016F5F7F4F90E0F3D4CE0101960E9440
S11342E05D0EF80183814AE0BE016F5F7F4F90E06D
S11342F0E7D4CE0101960E945D0E8BEB94E00E9400
S11343005D0EF80184814AE0BE016F5F7F4F90E04B
S1134310D7D4CE0101960E945D0EF80185814AE052
S1134320BE016F5F7F4F90E0CBD4CE0101960E9417
S11343305D0E6EE180E00E94940D02E011E0F80150
S113434080814AE0BE016F5F7F4F90E0B9D4CE0117
S113435001960E945D0EF80181814AE0BE016F5F03
S11343607F4F90E0ADD4CE0101960E945D0E8BECA0
S113437098E00E945D0EF80182814AE0BE016F5F01
S11343807F4F90E09DD4CE0101960E945D0EF8010E
S113439083814AE0BE016F5F7F4F90E091D4CE01EC
S11343A001960E945D0E8BEC98E00E945D0EF80170
S11343B084814AE0BE016F5F7F4F90E081D4CE01DB
S11343C001960E945D0EF80185814AE0BE016F5F8F
S11343D07F4F90E075D4CE0101960E945D0EF801E6
S11343E086814AE0BE016F5F7F4F90E069D4CE01C1
S11343F001960E945D0EF80187814AE0BE016F5F5D
S11344007F4F90E05DD4CE0101960E945D0E68E27C
S113441083E00E94940D8DEC98E00E945D0E62E3AF
S113442083E00E94940D80EE98E00E945D0E6CE3A0
S113443083E00E94940D82ED92E00E945D0E85E27D
S113444064960FB6F894DEBF0FBECDBFDF91CF9157
S11344501F910F9108950F931F93CF93DF93CDB7BF
S1134460DEB764970FB6F894DEBF0FBECDBF1091D0
S1134470210B4AE0BE016F5F7F4F812F90E020D473
S1134480CE010196F3D384E499E0F0D3E09194094A
S1134490EE2331F0F0E0E059F54F1150108307C0DE
S11344A064EF71E085E79FE05CD180931D0B0E946F
S11344B0F30D60E08AE00E94940D82EF98E00E9480
S11344C05D0E64E180E00E94940D01E71AE0F801BA
S11344D080814AE0BE016F5F7F4F90E0F1D3CE014F
S11344E001960E945D0EF80181814AE0BE016F5F72
S11344F07F4F90E0E5D3CE0101960E945D0E8BEBD9
S113450094E00E945D0EF80182814AE0BE016F5F73
S11345107F4F90E0D5D3CE0101960E945D0EF80145
S113452083814AE0BE016F5F7F4F90E0C9D3CE0123
S113453001960E945D0E8BEB94E00E945D0EF801E3
S113454084814AE0BE016F5F7F4F90E0B9D3CE0112
S113455001960E945D0EF80185814AE0BE016F5FFD
S11345607F4F90E0ADD3CE0101960E945D0E809105
S113457094098F5F873021F08093940986E206C006
S11345801092940980911D0B18D184E264960FB6A1
S1134590F894DEBF0FBECDBFDF91CF911F910F9175
S11345A00895EF92FF920F931F93CF93DF93CDB7AC
S11345B0DEB764970FB6F894DEBF0FBECDBF10917F
S11345C0210B4AE0BE016F5F7F4F812F90E078D3CB
S11345D0CE0101964BD384E499E048D3E091940949
S11345E0EE2331F0F0E0EF5FFE4F1150108307C06F
S11345F064EF71E087EA9FE0B4D080931A0B0E94C5
S1134600F30D60E08AE00E94940D82E099E00E943C
S11346105D0E64E180E00E94940D02E011E0F80177
S113462080814AE0BE016F5F7F4F90E049D3CE01A5
S113463001960E945D0EF80181814AE0BE016F5F20
S11346407F4F90E03DD3CE0101960E945D0E8BEC2E
S113465098E00E945D0EF80182814AE0BE016F5F1E
S11346607F4F90E02DD3CE0101960E945D0EF8019C
S113467083814AE0BE016F5F7F4F90E021D3CE017A
S113468001960E945D0E8BEC98E00E945D0EF8018D
S113469084814AE0BE016F5F7F4F90E011D3CE0169
S11346A001960E945D0E0F2EF1E7EF2EFAE0FF2E29
S11346B0F02DF70185814AE0BE016F5F7F4F90E0E6
S11346C0FFD2CE0101960E945D0EF80186814AE078
S11346D0BE016F5F7F4F90E0F3D2CE0101960E943E
S11346E05D0EF70187814AE0BE016F5F7F4F90E066
S11346F0E7D2CE0101960E945D0E809194098F5FEE
S1134700893021F08093940988E206C010929409BC
S113471080911A0B52D084E264960FB6F894DEBFEF
S11347200FBECDBFDF91CF911F910F91FF90EF90FE
S11347300895E3EBFBE0A4E2BBE087EC9BE011927D
S113474011921D921D92E817F907C9F71092B10B47
S11347501092B00B1092C80B1092C70B1092B20BB0
S113476008952091B50B3091B60B232B71F0E7EB34
S1134770FBE021E030E02F5F3F4F41915191452B09
S1134780D1F72A30310518F016C021E030E0A90134
S1134790440F551FFA01ED54F44F91838083FA01BD
S11347A0EC5DF44F71836083FA01E85CF44F11828D
S11347B01082822F08958FEF08958A3068F490E074
S11347C0880F991FFC01ED54F44F11821082FC01F3
S11347D0EC5DF44F1182108208950F931F93CF93D1
S11347E0DF93182F062F82E199E040D2E5E2F6E04C
S11347F0E491EE2341F1C0E0D0E090E01E1316C036
S1134800FE01EE0FFF1FEC0FFD1FEA5DF94FE4916F
S1134810E0130CC083E399E029D2FE01EE0FFF1FE1
S1134820EC0FFD1FE95DF94F14910DC09F5FC92F77
S1134830D0E0FE01EE0FFF1FEC0FFD1FEB5DF94F03
S1134840E491E111DBCF812FDF91CF911F910F9183
S113485008951092230BD7D1E7D1789486E499E098
S113486005D2C12CD12C0F2EFAE05F2EF02D0F2E85
S1134870F5EBAF2EFBE0BF2EF02D0F2EF4E26F2EE2
S1134880FBE07F2EF02D33243394412C0F2EF4E5DE
S11348908F2EF4E09F2EF02D212C01C05C2E75018B
S11348A08301C32DD42DCE01D701ED91FD917D015E
S11348B03097C1F0DE01AA0FBB1FA85CB44F4D9125
S11348C05C91D80112962D913C911397421753078E
S11348D048F0880F991FDC01A85CB44F11961C9214
S11348E01E92099521960E5F1F4FCA30D105D9F645
S11348F08091220B9091220B91118093210B1092A5
S1134900220BC114D10421F0F6010995C82F0CC063
S1134910882349F0682F8091230B5FDFC82F85E53A
S113492099E0A4D101C0C52D5090230BC51509F4FD
S1134930B6CF88E699E09AD1C093230BF401849111
S1134940882309F4ABCFC81729F020E018C0CE1390
S113495016C002C0822D90E0FC01EE0FFF1FEE0F87
S1134960FF1F8E0F9F1FFC01EB5AFB4F25913491C3
S1134970895A9B4FFC01C590D4905C2E90CF2F5F39
S1134980822F90E0FC01EE0FFF1FEE0FFF1FE80FD8
S1134990F91FEC5AFB4FE491E111D9CF5C2E7FCF84
S11349A01F920F920FB60F9211240BB60F922F93F2
S11349B03F938F939F93EF93FF9380EE80938500B3
S11349C080EC8093840080E090E0FC01EE0FFF1FF8
S11349D0E85CF44F208131812F5F3F4F3183208386
S11349E001968A30910589F7FF91EF919F918F91FC
S11349F03F912F910F900BBE0F900FBE0F901F9001
S1134A0018951F920F920FB60F9211240BB60F92A6
S1134A102F933F934F935F936F937F938F939F93C2
S1134A20AF93BF93EF93FF93E8E6F0E080818D7F2F
S1134A3080832898299A2A9A2B9A1F9903C088E080
S1134A408093220B1E9903C085E08093220B1D994D
S1134A5003C082E08093220B1C9903C08FE08093F3
S1134A60220B289A29981F9903C089E08093220B6E
S1134A701F9903C089E08093220B1E9903C086E02E
S1134A808093220B1D9903C083E08093220B1C9911
S1134A9003C081E08093220B299A2A981F9903C0AE
S1134AA08AE08093220B1F9903C08AE08093220B33
S1134AB01E9903C087E08093220B1D9903C084E0F4
S1134AC08093220B1C9903C080E18093220B2A9AC5
S1134AD02B981F9903C08BE08093220B1F9903C06E
S1134AE08BE08093220B1E9903C08CE08093220BF1
S1134AF01D9903C08DE08093220B1C9903C08EE0A6
S1134B008093220B289829982A9862E370E088E918
S1134B1090E127DE80931C0BFF91EF91BF91AF9141
S1134B209F918F917F916F915F914F913F912F91C1
S1134B300F900BBE0F900FBE0F901F9018951F92F1
S1134B400F920FB60F9211240BB60F922F933F932F
S1134B504F935F936F937F938F939F93AF93BF9381
S1134B60EF93FF93E091770AF0E08091C600E45B55
S1134B70F44F8083E091770AF0E0E45BF44F8081A6
S1134B808D3041F0E091770AF0E0E45BF44F8081EE
S1134B90811115C0E091770AF0E0E45BF44F1082D4
S1134BA081E08093B20B1092770A8DE090E057D0A9
S1134BB08AE090E054D08EE390E051D011C0E091AF
S1134BC0770AF0E0E45BF44F808190E048D0809174
S1134BD0770A8F5F8093770A843610F01092770AF1
S1134BE0FF91EF91BF91AF919F918F917F916F91C1
S1134BF05F914F913F912F910F900BBE0F900FBE7D
S1134C000F901F90189510928000E1E8F0E08081E9
S1134C10816080838CEF8093850087E1809384009A
S1134C2081E080936F000895E0ECF0E08081826081
S1134C3080831092C50083E38093C400E1ECF0E02C
S1134C40808188698083E2ECF0E0808186608083E3
S1134C500895E0ECF0E0808185FFFDCF0895CF93C7
S1134C60C82FF7DFC093C600CF910895EF92FF924B
S1134C700F931F93CF938C010F2EF6ECEF2EF12C94
S1134C80F02D03C0E6DFF701C083F801C1918F0165
S1134C90C111F8CFCF911F910F91FF90EF9008951C
S1134CA0EE0FFF1F0024001C0BBE0790F691E02DB1
S1134CB00994FB01DC0101900D920020E1F70895B5
S1134CC0BB274A3031F4992322F4BDE290958195B3
S1134CD09F4F01C0BB27FB015527AA27880F991FA7
S1134CE0AA1FA41710F0A41B83955051B9F7A05D17
S1134CF0AA3308F0A95DA193009779F7B111B19394
S1134D001192CB0100C0DC01FC01672F7191772364
S1134D10E1F7329704C07C916D9370836291AE1772
S10D4D20BF07C8F30895F894FFCF0D
S1134D2A010100010001020000006932632073746A
S1134D3A617274206661696C65642E2E0045455063
S1134D4A524F4D2073656E644164647265737331A6
S1134D5A206661696C65642E2E00454550524F4D9C
S1134D6A2077726974652D31206661696C65642ED9
S1134D7A2E00454550524F4D2077726974652D3285
S1134D8A206661696C65642E2E006932632072653F
S1134D9A706561742D7374617274206661696C65DF
S1134DAA642E2E00454550524F4D2073656E644162
S1134DBA64647265737332206661696C65642E2E4D
S1134DCA00454550524F4D207265636569766520EA
S1134DDA6661696C65642E2E00454550524F4D201C
S1134DEA524F5554494E45205F646174613A200A12
S1134DFA00454550524F4D207772697465206461AD
S1134E0A7461205375636365737366756C2E2E0023
S1134E1A454550524F4D2077726974652064617418
S1134E2A61206661696C65642E2E00454550524FB7
S1134E3A4D20777269746520646174612053554307
S1134E4A45535346554C2E2E0A0054686520526524
S1134E5A67756C61746F7200434F444544206279EC
S1134E6A3A004265636B2E44202043686576616C80
S1134E7A6965722E4C0A00436C6172656D626175D4
S1134E8A782E4C202043726F69782E410A004465BB
S1134E9A6C626172742E4220204D61657274656E73
S1134EAA2E470A0020202020202050617577656C47
S1134EBA732E41004D454E5500312E4175746F6D68
S1134ECA61746971756500322E4D616E75656C0089
S1134EDA332E5061726D657472657300434F4E537D
S1134EEA49474E45002041203A205265676C616764
S1134EFA65002042203A204241434B00456E7472B9
S1134F0A6572206C6120636F6E7369676E653A001F
S1134F1A56616C65757220636F6E7369676E653A64
S1134F2A20004D414E5500312E4964656E74696600
S1134F3A69636174696F6E00322E4F757400434F52
S1134F4A4D494E4720534F4F4E202E2E2E20425964
S1134F5A205553415254004F555400456E7465729E
S1134F6A204F55542056616C75653A0056616C653C
S1134F7A7572204F55543A2000504152414D4554C0
S1134F8A52455300312E436170746575720A0032BA
S1134F9A2E536F727469650A00332E416C61726D07
S1134FAA650A00342E5265676C616765207265670D
S1134FBA756C61746575720A00352E446174652FC7
S1134FCA68657572650A00423A204241434B0043C0
S1134FDA484F4958204341505445555200312E54A4
S1134FEA656D706572617475726500322E4C756DEB
S1134FFA696E6F7369746500332E48756D696469E7
S113500A746500342E4144430043617074657572BB
S113501A2063686F6973693A00534F5254494500D3
S113502A312E50574D00322E52656C61697300332C
S113503A2E416E616C6F676971756500536F727486
S113504A69652063686F697369653A00414C415226
S113505A4D4500312E56616C657572206861757410
S113506A6500322E56616C657572206261737365D0
S113507A00332E53544F50005345542048696768EF
S113508A00416C61726D20484947482056616C752D
S113509A653A00416C61726D20484947482056615F
S11350AA6C75653A2000534554204C6F7700416C67
S11350BA61726D204C4F572056616C75653A0056E3
S11350CA616C65757220616C61726D6520626173D1
S11350DA73653A2000414C41524D453A00204172D1
S11350EA7265746565005245474C414745205245EF
S11350FA47554C415445555200312E5265637572D9
S113510A72656E636500322E50494400332E487925
S113511A73746572657369730052454355525245F7
S113512A4E4345002031203A205265676C61676519
S113513A2041205553415254002032203A205265CE
S113514A676C6167652042205553415254000A50E6
S113515A6172616DE87472657320412061637475CC
S113516A656C73203A200A000A506172616DE87412
S113517A72657320422061637475656C73203A20EA
S113518A0A000A506F7572206D6F646966696572E8
S113519A206C657320636F656666696369656E74FE
S11351AA7320412C20617070757965722073757251
S11351BA20312C207075697320656E7472657220B3
S11351CA6C657320706172616DE874726573207323
S11351DA6F7573206C6120666F726D653A0A0030D0
S11351EA302E30303030302C30302E3030303030B9
S11351FA2C30302E30303030302C30302E303030AD
S113520A30302C30302E30303030302C30302E309C
S113521A303030302C30302E30303030302C30308A
S113522A2E30303030302C30302E30303030302C7C
S113523A30302E30303030300A00636F727265734A
S113524A706F6E64616E742061757820706172612A
S113525A6DE8747265733A2061302C61312C6132C5
S113526A2C61332C61342C61352C61362C61372C3A
S113527A61382C61390A000A506F7572206D6F64A7
S113528A6966696572206C657320636F6566666911
S113529A6369656E747320422C2061707075796538
S11352AA7220737572202C207075697320656E7470
S11352BA726572206C657320706172616DE8747234
S11352CA657320736F7573206C6120666F726D65E8
S11352DA3A0A00636F72726573706F6E64616E74FA
S11352EA2061757820706172616DE8747265733A31
S11352FA2062302C62312C62322C62332C62342CC0
S113530A62352C62362C62382C62390A00496E7472
S113531A726F647569736572206C6573207061724B
S113532A616DE8747265733A0A00496E74726F6447
S113533A756973657A2041277320757361727400E5
S113534A506172616DE87472657320656E72656787
S113535A69737472E97320210A00496E74726F6466
S113536A756973657A2042277320757361727400B4
S113537A50494420504152414D45544552530031FD
S113538A2E42500A00322E54690A00332E54640AFB
S113539A00342E54650A00352E4F5554300A004203
S11353AA616E64652050726F706F7274696F6E6E8D
S11353BA656C6C650042616E64652050726F706F33
S11353CA7274696F6E6E656C6C653A0020250043D1
S11353DA6F6E7374616E746520696E746567726149
S11353EA74696F6E00436F6E7374616E74652069BD
S11353FA6E746567726174696F6E3A00436F6E7397
S113540A74616E74652064657269766174696F6E1D
S113541A00436F6E7374616E746520646572697695
S113542A6174696F6E3A00506572696F64652065CC
S113543A6368616E74696C6C6F6E00506572696F33
S113544A646520656368616E74696C6C6F6E3A009A
S113545A436F6D6D616E6465207265736964756509
S113546A6C6C6500436F6D6D616E64652072657363
S113547A696475656C6C653A0048595354455245DC
S113548A53495320504152414D45544552530031DA
S113549A2E534554204849474800322E5345542038
S11354AA4C4F570053455420484947483A004879D5
S11354BA737465726573697320686175743A00530D
S11354CA4554204C4F573A00487973746572657392
S11354DA6973206261733A005245474C414745203B
S11354EA44415445204845555245002F0020312057
S11354FA3A205265676C61676520484555524500F4
S113550A2032203A205265676C6167652044415411
S113551A4500456E74726572206C276865757265FC
S113552A3A00456E74726572206C61206461746518
S113553A3A0044616E73206C6120666F6E6374690D
S113554A6F6E207374617465206D616368696E653A
S113555A200A005468697320697320746865206F8F
S113556A6E6521200A0044656D6172726167652067
S113557A4F53200A00417070756920737572206256
S113558A6F75746F6E200A004368616E67656D6596
S10F559A6E7420642765746174200A009C
S9030000FC
