:1000000045C0000053C0000051C000004FC00000B8
:100010004DC000004BC0000049C0000047C00000B8
:1000200045C000007EC0000041C000003FC000008D
:100030003DC000003BC0000039C0000037C00000D8
:1000400035C0000033C0000031C000002FC00000E8
:100050002DC000002BC0000029C0000027C00000F8
:1000600025C0000023C0000021C000001FC0000008
:100070001DC000001BC0000019C0000017C0000018
:1000800015C0000013C0000011C0000011241FBEE5
:10009000CFEFD0E4DEBFCDBF21E0A0E0B1E001C0F2
:1000A0001D92A134B207E1F7F6D062C1A9CFE0E01A
:1000B000F1E0A5E1B1E084E191E0119211921D928D
:1000C0001D92E817F907C9F70895209100013091B2
:1000D0000101232B71F0E2E0F1E020E030E02F5F3E
:1000E0003F4F41915191452BD1F72A30310518F0FE
:1000F00016C020E030E0A901440F551FFA01E0507E
:10010000FF4F91838083FA01EB5EFE4F7183608322
:10011000FA01E75DFE4F11821082822F08958FEF62
:1001200008951F920F920FB60F9211240BB60F92E3
:100130002F933F938F939F93EF93FF9380E090E0F3
:10014000FC01EE0FFF1FE75DFE4F208131812F5F25
:100150003F4F3183208301968A30910589F78AE0E9
:1001600080931401FF91EF919F918F913F912F9177
:100170000F900BBE0F900FBE0F901F901895662327
:1001800079F021E030E0A90102C0440F551F8A95A3
:10019000E2F7CA0190913D01892B80933D010FC088
:1001A00021E030E0A90102C0440F551F8A95E2F713
:1001B000CA01809590913D01892380933D012C983F
:1001C00080E496D082E194D080913D0191D02C9A28
:1001D0000895662379F021E030E0A90102C0440FC0
:1001E000551F8A95E2F7CA0190913E01892B8093B1
:1001F0003E010FC021E030E0A90102C0440F551FAD
:100200008A95E2F7CA01809590913E0189238093F7
:100210003E012C9880E46CD083E16AD080913E014D
:1002200067D02C9A0895CF93DF93D82FC62F2C98A0
:1002300080E45ED08D2F5CD08C2F5AD02C9ADF9129
:10024000CF91089510923D0110923E0168E08AE03E
:10025000EADF68E08AE0E7DF60E084E0E4DF60E0B6
:1002600085E0E1DF60E08CE0DEDF60E08DE0DBDF99
:1002700060E080E0D8DF60E081E0D5DF60E082E12F
:10028000D2DF60E083E1CFCF0895809140018F5F9E
:10029000809340010895209A289A249A2C9A559A7E
:1002A0005D9A05DF20D045D029D0CCDF789484E05A
:1002B00038D061E085E063DF61E086E060DF60E028
:1002C00085E05DDF60E086E05ADF61E080E081DFAD
:1002D00061E085E07EDF68E873E185E491E0F5DECA
:1002E00080933F01FFCF259A279A80E58CBD089522
:1002F0008EBD0DB407FEFDCF8EB50895E0EBF0E0A6
:10030000808182608083E1EBF0E080818260808385
:100310008DE78093B300E0E7F0E080818260808326
:100320000895E8ECF0E0908195FFFDCF8093CE003A
:1003300008958CE090E09093CD008093CC00E8ECA1
:10034000F0E0808182608083E9ECF0E08081806869
:100350008083808180618083808188608083EAECF3
:10036000F0E0808182608083808184608083089552
:04037000F894FFCF2F
:00000001FF
