:1000000045C1000060C100005EC100005CC100008D
:100010005AC1000016C3000056C1000054C10000C0
:1000200052C1000050C100004EC100004CC1000090
:100030004AC1000048C1000046C1000044C10000A0
:1000400042C1000040C100003EC100003CC10000B0
:100050003AC1000038C1000036C1000034C10000C0
:1000600032C1000030C100002EC100002CC10000D0
:100070002AC1000028C1000026C1000024C10000E0
:1000800022C1000020C100001EC1000083028D02B9
:100090009702A102AB02B502BF02C902D302DD0280
:1000A000FB0205030F031903E702F1020000000041
:1000B0000000005F00000007000700147F147F1499
:1000C000242A7F2A122313086462364955225000DD
:1000D00005030000001C2241000041221C00082AE8
:1000E0001C2A0808083E08080050300000080808CC
:1000F0000808006060000020100804023E514945D5
:100100003E00427F400042615149462141454B310A
:100110001814127F1027454545393C4A494930019A
:10012000710905033649494936064949291E0036F1
:100130003600000056360000000814224114141442
:100140001414412214080002015109063249794170
:100150003E7E1111117E7F494949363E414141227F
:100160007F4141221C7F494949417F090901013EE4
:10017000414151327F0808087F00417F4100204003
:10018000413F017F081422417F404040407F0204EC
:10019000027F7F0408107F3E4141413E7F090909EB
:1001A000063E4151215E7F09192946464949493198
:1001B00001017F01013F4040403F1F2040201F7F41
:1001C0002018207F6314081463030478040361512A
:1001D00049454300007F4141020408102041417F0E
:1001E00000000402010204404040404000010204BB
:1001F0000020545454787F484444383844444420C0
:10020000384444487F3854545418087E0901020881
:100210001454543C7F0804047800447D400020407E
:10022000443D00007F10284400417F40007C0418BA
:1002300004787C0804047838444444387C1414144A
:1002400008081414187C7C080404084854545420EA
:10025000043F4440203C4040207C1C2040201C3C6B
:100260004030403C44281028440C5050503C4464DA
:10027000544C44000836410000007F000000413625
:10028000080008082A1C08081C2A080811241FBE98
:10029000CFEFD0E4DEBFCDBF11E0A0E0B1E0ECE4F1
:1002A000F7E000E00BBF02C007900D92A43BB1073E
:1002B000D9F721E0A4EBB1E001C01D92A73BB20742
:1002C000E1F700D141C29CCE8FE084B980EF85B9BF
:1002D000089585B1806F85B9089500000000000081
:1002E000000000000000000000000000000000000E
:1002F00000000000000008959FEF97B982B9449A6A
:10030000ECDF4498EACF0895886BF6CF08954698BD
:10031000459A08954598469A0895CF93C82F8034FA
:1003200028F4F5DF8C2F8064E7DF05C0F3DF80EC75
:100330008C0F8064E1DFCF9108958091B401803407
:1003400010F4E5CF0895E6CF0895F7DF11B842988D
:1003500088B1886188B9C1DF80B191B19FEF91B94F
:1003600098B1977E98B90895F0DF829581700895CD
:10037000CF93DF93D82FC62F8093B4016093B5013C
:10038000DCDF8D2FCADF8C2F869586958695BCDFA6
:10039000DF91CF910895CF93C82F6091B5018091DF
:1003A000B401E6DF8FEF81B9C2B988B1846188B941
:1003B00094DF4498429891DF8091B4018F5F8093DD
:1003C000B401CF9108951F93CF93DF93D82F10E0FE
:1003D000612F80E0CDDFC0E08D2FDDDFCF5FC03843
:1003E000D9F7185F1034A1F7DF91CF911F910895CD
:1003F00080E0E9CF08950F931F93CF93DF93082FE9
:1004000010E000521109C801880F991F880F991F29
:10041000080F191FE801C455DF4F0F541F4F80917B
:10042000B40188235CF46091B501683420F4685FFE
:1004300080E09EDF03C060E080E09ADFFE018491EF
:10044000AADF2196C017D10751F780E0A4DFDF9122
:10045000CF911F910F9108950F931F93CF93FC019C
:1004600080818823A1F08F01C0E08A3041F410928E
:10047000B4019091B501985F9093B50101C0BBDFC5
:10048000CF5FF801EC0FF11D80818111EECFCF918C
:100490001F910F9108953BDF8FE32EDF3BDF8FE34A
:1004A0002BCF089587B18FEF87B991B181B901C082
:1004B00014DF5ADF8111FCCFEEDF9ADF60E080E0CD
:1004C00057CF0895EFDF05DFFFDEE8E6F0E080813B
:1004D00082608083ECE6F0E08081806F8083789496
:1004E00087DF60E08FE044DF89EA91E0B5DFE091EB
:1004F000B6018E2F90E0FC013197E031F105B8F79D
:10050000EA5BFF4F18C174DF60E08FE031DF80E00D
:1005100091E0A2DF1092B601EACF6ADF60E08FE0DF
:1005200027DF8AE091E098DF1092B601E0CF60DF2C
:1005300060E08FE01DDF84E191E08EDF1092B60174
:10054000D6CF56DF60E08FE013DF8EE191E084DFED
:100550001092B601CCCF4CDF60E08FE009DF88E27B
:1005600091E07ADF1092B601C2CF42DF60E08FE007
:10057000FFDE82E391E070DF1092B601B8CF38DF82
:1005800060E08FE0F5DE8CE391E066DF1092B6016B
:10059000AECF2EDF60E08FE0EBDE86E491E05CDF43
:1005A0001092B601A4CF24DF60E08FE0E1DE80E5A9
:1005B00091E052DF1092B6019ACF1ADF60E08FE02F
:1005C000D7DE8AE591E048DF1092B60190CF10DFC8
:1005D00060E08FE0CDDE84E691E03EDF1092B60170
:1005E00086CF06DF60E08FE0C3DE83E791E034DF93
:1005F0001092B6017CCFFCDE60E08FE0B9DE81E8CE
:1006000091E02ADF1092B60172CFF2DE60E08FE057
:10061000AFDE8BE891E020DF1092B60168CFE8DE14
:1006200060E08FE0A5DE85E991E016DF1092B6016B
:100630005ECFDEDE60E08FE09BDE8FE991E00CDFD5
:1006400056CF1F920F920FB60F9211248F931092D4
:10065000B6012898299A2A9A2B9A1F9903C08FE0ED
:100660008093B6011E9903C088E08093B6011D995E
:1006700003C085E08093B6011C9903C082E080939B
:10068000B601289A29981F9903C081E08093B6018A
:100690001F9903C081E08093B6011E9903C089E0D1
:1006A0008093B6011D9903C086E08093B6011C9922
:1006B00003C083E08093B601299A2A981F9903C04A
:1006C00080E18093B6011F9903C080E18093B60159
:1006D0001E9903C08AE08093B6011D9903C087E08C
:1006E0008093B6011C9903C084E08093B6012A9AD6
:1006F0002B981F9903C08EE08093B6011F9903C009
:100700008EE08093B6011E9903C08DE08093B60100
:100710001D9903C08CE08093B6011C9903C08BE047
:100720008093B601289829982A988F910F900FBE30
:100730000F901F901895EE0FFF1F0024001C0BBE9A
:0C0740000790F691E02D0994F894FFCF8B
:10074C00426F75746F6E20300000426F75746F6E5F
:10075C0020310000426F75746F6E20320000426FC2
:10076C0075746F6E20330000426F75746F6E203499
:10077C000000426F75746F6E20350000426F757407
:10078C006F6E20360000426F75746F6E203700005C
:10079C00426F75746F6E20380000426F75746F6E07
:1007AC0020390000426F75746F6E2065746F696C30
:1007BC00650000426F75746F6E206469657A650020
:1007CC0000426F75746F6E20410000426F75746F3C
:1007DC006E20420000426F75746F6E204300004221
:1007EC006F75746F6E20440000474C43445F544552
:0407FC005354000052
:00000001FF
